:100000000C9462000C9495070C946E070C948A0073
:100010000C948A000C948A000C948A000C948A0038
:100020000C948A000C948A000C948A000C948A0028
:100030000C948A000C948A000C948A000C948A0018
:100040000C9424070C948A000C94F2060C94CC06B1
:100050000C948A000C948A000C948A000C948A00F8
:100060000C948A000C948A000000000024002700F1
:100070002A0000000000250028002B0000000000DE
:1000800023002600290004040404040404040202DA
:100090000202020203030303030301020408102007
:1000A0004080010204081020010204081020000012
:1000B0000008000201000003040700000000000027
:1000C0000000420811241FBECFEFD4E0DEBFCDBF39
:1000D00011E0A0E0B1E0ECE5F2E202C005900D9283
:1000E000A632B107D9F722E0A6E2B1E001C01D9225
:1000F000A238B207E1F710E0C2E6D0E004C02197D1
:10010000FE010E94370EC136D107C9F70E94C3080D
:100110000C942C110C940000CF92DF92EF92FF927E
:100120000F931F93CF93DF936C017A018B01C0E093
:10013000D0E0CE15DF0581F0D8016D918D01D6019B
:10014000ED91FC910190F081E02DC6010995892B7C
:1001500011F02196EECF7E01C701DF91CF911F9163
:100160000F91FF90EF90DF90CF900895089580E079
:1001700090E00895FC01538D448D252F30E0842FAD
:1001800090E0821B930B541710F0CF9608950197BF
:100190000895FC01918D828D981761F0828DDF01A9
:1001A000A80FB11D5D968C91928D9F5F9F73928F6A
:1001B00090E008958FEF9FEF0895FC01918D828D5F
:1001C000981731F0828DE80FF11D858D90E008952C
:1001D0008FEF9FEF0895FC01918D228D892F90E084
:1001E000805C9F4F821B91098F73992708958DE33F
:1001F00091E00E94EB0021E0892B09F420E0822F9E
:100200000895FC01848DDF01A80FB11DA35ABF4FD3
:100210002C91848D90E001968F739927848FA68905
:10022000B7892C93A089B1898C91837080648C9359
:10023000938D848D981306C00288F389E02D808108
:100240008F7D80830895EF92FF920F931F93CF933A
:10025000DF93EC0181E0888F9B8D8C8D981305C016
:10026000E889F989808185FD26C0F62E0B8D10E086
:100270000F5F1F4F0F731127E02E8C8DE8120CC0FB
:100280000FB607FCFACFE889F989808185FFF5CFA1
:10029000CE010E940101F1CF8B8DFE01E80FF11D0F
:1002A000E35AFF4FF0829FB7F8940B8FEA89FB89DE
:1002B000808180620AC09FB7F894EE89FF896083CD
:1002C000E889F98980818370806480839FBF81E0A1
:1002D00090E0DF91CF911F910F91FF90EF900895E3
:1002E000CF93DF93EC01888D8823C9F0EA89FB89DD
:1002F000808185FD05C0A889B9898C9186FD0FC0D4
:100300000FB607FCF5CF808185FFF2CFA889B989A8
:100310008C9185FFEDCFCE010E940101E7CFDF91E7
:10032000CF91089580E090E0892B29F00E94F7009A
:1003300081110C9400000895833081F028F48130FD
:1003400099F08230A1F008958730A9F08830B9F093
:100350008430D1F4809180008F7D03C08091800033
:100360008F7780938000089584B58F7702C084B51D
:100370008F7D84BD08958091B0008F7703C08091F8
:10038000B0008F7D8093B0000895CF93DF93282F26
:1003900030E0F901E255FF4F8491F901E656FF4F35
:1003A000D491F901EA57FF4FC491CC2391F0811108
:1003B0000E949C01EC2FF0E0EE0FFF1FE458FF4F6E
:1003C000A591B491EC91ED2381E090E021F480E0DF
:1003D00002C080E090E0DF91CF9108951F93CF930A
:1003E000DF93282F30E0F901E255FF4F8491F901A6
:1003F000E656FF4FD491F901EA57FF4FC491CC2341
:10040000C1F0162F81110E949C01EC2FF0E0EE0F3D
:10041000FF1FEE58FF4FA591B4919FB7F8941111AB
:1004200004C08C91D095D82302C0EC91DE2BDC93D4
:100430009FBFDF91CF911F910895CF93DF9390E0FD
:10044000FC01E656FF4F2491FC01EA57FF4F8491CF
:10045000882361F190E0880F991FFC01E859FF4F54
:10046000C591D491FC01EE58FF4FA591B491611153
:1004700009C09FB7F8948881209582238883EC91E6
:100480002E230BC0623061F49FB7F8948881322F1D
:10049000309583238883EC912E2B2C939FBF06C02D
:1004A0008FB7F894E8812E2B28838FBFDF91CF91EF
:1004B00008951F93CF93DF93182FEB0161E00E9403
:1004C0001D02209711F460E004C0CF3FD10539F43C
:1004D00061E0812FDF91CF911F910C94EE01E12F0C
:1004E000F0E0E255FF4FE491E330F9F048F4E130F9
:1004F000B9F0E230A1F584B5806284BDC8BD34C0D6
:10050000E730E9F0E83019F1E43049F580918000F6
:10051000806280938000D0938B00C0938A0024C0B7
:1005200084B5806884BDC7BD1FC08091800080688D
:1005300080938000D0938900C093880015C080917B
:10054000B00080688093B000C093B3000DC080916C
:10055000B00080628093B000C093B40005C0C03882
:10056000D1050CF0B5CFAFCFDF91CF911F9108959A
:1005700008952F923F924F925F926F927F928F9247
:100580009F92AF92BF92CF92DF92EF92FF920F9322
:100590001F93CF93DF93CDB7DEB72F970FB6F894A5
:1005A000DEBF0FBECDBF9A8389838FB7F8942091A9
:1005B000390130913A0140913B0150913C012A8729
:1005C0003B874C875D878FBFE981FA8182A193A128
:1005D000A4A1B5A14A855B856C857D85481B590B17
:1005E0006A0B7B0B86A597A5A0A9B1A94817590747
:1005F0006A077B0708F41BC1FF87EE87048CF58D23
:10060000E02D208131814281538129833A834B83BC
:100610005C83AE85BF859096ED91FC91919760814A
:100620007181828193810E94F20B4B015C01EE8506
:10063000FF8522A533A544A555A569817A818B81C3
:100640009C810E94F20B6B017C01AE85BF855096A8
:100650002D913D914D915C915397C501B4010E943C
:10066000C30DEE85FF8526A137A140A551A50E94A7
:10067000F30B2B013C01AE85BF8596966D937D9360
:100680008D939C939997DB96BC91BD83B11118C053
:10069000EE85FF852485358546855785C701B601DA
:1006A0000E94C30D9B01AC01C301B2010E94F20B79
:1006B000AE85BF8596966D937D938D939C93999708
:1006C000EE85FF8546A057A060A471A416A907A9CE
:1006D00030AC21AC212F302F432D522DC301B2015C
:1006E0000E94BE0D18165CF4812F902FA32DB22D01
:1006F000EE85FF8586A397A3A0A7B1A71EC0AE85F0
:10070000BF85D2962D913D914D915C91D5972E83C9
:100710003F8348875987C301B2010E945F0C87FF5E
:100720000CC02E813F8148855985AE85BF85969640
:100730002D933D934D935C939997BD81BB2369F0B5
:10074000EE85FF852485358546855785C501B4012D
:100750000E94C30D4B015C0103C0812C912C5401FC
:10076000AE85BF8554962D913D914D915C915797E3
:10077000C701B6010E94C30D9B01AC01EE85FF8548
:1007800066A177A180A591A50E94F20BA501940115
:100790000E94F30B6B017C019B01AC01612F702F58
:1007A000832D922D0E945F0C87FD1BC0AE85BF85F7
:1007B000D2961C91D297D3960C91D397D4963C9015
:1007C000D497D5962C90212F302F432D522DB60142
:1007D000C7010E945F0C87FD04C01C2D0D2D3E2C0F
:1007E0002F2CAE85BF855E96ED91FC915F97812F92
:1007F000902FA32DB22D80839183A283B38329816F
:100800003A814B815C81AE85BF859A962D933D934D
:100810004D935C939D972A853B854C855D8592968B
:100820002D933D934D935C93959781E001C080E0BB
:100830002F960FB6F894DEBF0FBECDBFDF91CF91DC
:100840001F910F91FF90EF90DF90CF90BF90AF90EE
:100850009F908F907F906F905F904F903F902F90E0
:1008600008958F929F92AF92BF92CF92DF92EF92B4
:10087000FF92CF93DF93EC01EE8DFF8DC080D1808E
:10088000E280F380CEA2DFA2E8A6F9A6EC8DFD8D72
:1008900080819181A281B3818AA79BA7ACA7BDA7C4
:1008A0008EA89FA8A8ACB9ACA5019401C701B60158
:1008B0000E94BE0D181664F08AA89BA8ACA8BDA81B
:1008C000A5019401C701B6010E945F0C87FF04C017
:1008D0008EA29FA2A8A6B9A6DF91CF91FF90EF901C
:1008E000DF90CF90BF90AF909F908F9008952F9200
:1008F0003F924F925F926F927F928F929F92AF92B0
:10090000BF92CF92DF92EF92FF920F931F93CF93FC
:10091000DF93EC016A017B0148015901A9019801AB
:10092000C701B6010E94BE0D87FF4EC0CAAADBAA4E
:10093000ECAAFDAA8EAA9FAAA8AEB9AE8AAD88235A
:1009400009F442C02E8C3F8CF101408051806280BE
:100950007380A3019201C501B4010E945F0C87FF5F
:1009600006C0F10180829182A282B3820DC0A301F0
:100970009201C701B6010E94BE0D18162CF4F101B8
:10098000C082D182E282F3828EA09FA0A8A4B9A4E3
:10099000CEA8DFA8E8ACF9ACA7019601C501B40167
:1009A0000E94BE0D181664F0CAA8DBA8ECA8FDA82A
:1009B000A7019601C501B4010E945F0C87FF04C026
:1009C000CEA2DFA2E8A6F9A6DF91CF911F910F91E9
:1009D000FF90EF90DF90CF90BF90AF909F908F905F
:1009E0007F906F905F904F903F902F9008954F921F
:1009F0005F926F927F928F929F92AF92BF92CF92AF
:100A0000DF92EF92FF920F931F93CF93DF9300D06B
:100A100000D000D0CDB7DEB79E838D832A013B0185
:100A20004801590120E030E0A901C301B2010E9450
:100A30005F0C87FD89C020E030E0A901C501B40149
:100A40000E945F0C87FD80C020E030E0A901C70153
:100A5000B6010E945F0C87FD77C081E0ED81FE81C9
:100A6000228D338D2130310509F080E0ED81FE814A
:100A700083AF408251826282738284829582A68291
:100A8000B782C086D186E286F38666A577A580A95F
:100A900091A90E940C0D20E030E04AE754E40E9446
:100AA000640C69837A838B839C83ED81FE81448609
:100AB0005586668677869B01AC01C501B4010E940C
:100AC000C30D4B015C01ED81FE81608B718B828BCC
:100AD000938B29813A814B815C81C701B6010E94C9
:100AE000640C6B017C01ED81FE81648B758B868BC0
:100AF000978B808D918D019739F5A301920160E06C
:100B000070E0CB010E94F20BED81FE816487758756
:100B100086879787A501940160E070E0CB010E9471
:100B2000F20BED81FE81608B718B828B938BA70121
:100B3000960160E070E0CB010E94F20BED81FE8136
:100B4000648B758B868B978B26960FB6F894DEBFD9
:100B50000FBECDBFDF91CF911F910F91FF90EF900E
:100B6000DF90CF90BF90AF909F908F907F906F90CD
:100B70005F904F900895DC01ED91FD918081ED91A2
:100B8000FD919081ED91FD916C9163708E2309F040
:100B900064609F2309F06860E8EDF5E0E60FF11D61
:100BA000659565956D936D917D918D919D9109945C
:100BB00023C01AC012C016C010C01EC009C014C085
:100BC00013C006C019C009C00DC007C00DC014C0B5
:100BD00062507040804090400BC061507040804037
:100BE000904006C06E5F01C06F5F7F4F8F4F9F4F79
:100BF0009E938E937E936E93089580912801909199
:100C000029010C94BB0580912601909127010C9439
:100C1000BB054F925F926F927F928F929F92AF929D
:100C2000BF92CF92DF92EF92FF920F931F93CF93D9
:100C3000DF93CDB7DEB74C01DC015F965C934E933A
:100C40005E975D967C936E935C9791963C932E9302
:100C50009097DA961C92FC0112AA13AA14AA15AA5C
:100C600080E090E0AFE7B3E486AB97ABA0AFB1AF65
:100C700084E690E0A0E0B0E086A797A7A0ABB1AB78
:100C8000118E108E20E030E0A901C801B7010E944A
:100C90005F0C87FD56C020E030E0A901C601B50118
:100CA0000E945F0C87FD4DC020E030E0A9016B89F8
:100CB0007C898D899E890E945F0C87FD42C081E0FE
:100CC00090E0D4015B969C938E935A97DB968C931D
:100CD000DB97F401E082F182028313831496AD92D4
:100CE000BD92CD92DC9217978B899C89AD89BE8984
:100CF00080879187A287B387D4011C96ED92FD92DD
:100D00000D931C931F972DEC3CEC4CEC5DE3C6015E
:100D1000B5010E94C30DF401608B718B828B938BA4
:100D20002DEC3CEC4CEC5DE36B897C898D899E89D4
:100D30000E94640CD40154966D937D938D939C9383
:100D400057972FB7F8948091390190913A01A0916B
:100D50003B01B0913C012FBFF40146A557A560A906
:100D600071A9841B950BA60BB70B82A393A3A4A315
:100D7000B5A3DF91CF911F910F91FF90EF90DF907E
:100D8000CF90BF90AF909F908F907F906F905F902B
:100D90004F9008950E943D0E1F920F920FB60F9232
:100DA00011242F933F934F935F936F937F938F9370
:100DB0009F93AF93BF93EF93FF938DE391E00E94D6
:100DC0000101FF91EF91BF91AF919F918F917F9121
:100DD0006F915F914F913F912F910F900FBE0F90A8
:100DE0001F9018951F920F920FB60F9211242F93F8
:100DF0008F939F93EF93FF93E0914D01F0914E01FC
:100E00008081E0915301F091540182FD12C09081E4
:100E1000809156018F5F8F7320915701821751F097
:100E2000E0915601F0E0E35CFE4F958F8093560110
:100E300001C08081FF91EF919F918F912F910F9031
:100E40000FBE0F901F9018951F920F920FB60F9222
:100E500011242F933F938F939F93AF93BF938091D0
:100E6000390190913A01A0913B01B0913C01309140
:100E70002A0123E0230F2D3720F40196A11DB11D77
:100E800005C026E8230F0296A11DB11D20932A015B
:100E90008093390190933A01A0933B01B0933C01B8
:100EA00080912B0190912C01A0912D01B0912E01E8
:100EB0000196A11DB11D80932B0190932C01A0934D
:100EC0002D01B0932E01BF91AF919F918F913F91D2
:100ED0002F910F900FBE0F901F9018951F920F9299
:100EE0000FB60F9211242F933F934F935F936F93FD
:100EF0007F938F939F93AF93BF93EF93FF93E09173
:100F00000201F09103010995FF91EF91BF91AF911B
:100F10009F918F917F916F915F914F913F912F9111
:100F20000F900FBE0F901F9018951F920F920FB643
:100F30000F9211242F933F934F935F936F937F935F
:100F40008F939F93AF93BF93EF93FF93E091000133
:100F5000F09101010995FF91EF91BF91AF919F91A0
:100F60008F917F916F915F914F913F912F910F9052
:100F70000FBE0F901F9018958230A1F0833029F595
:100F800070932901609328018DEF95E09093030100
:100F90008093020180916900837F8460809369005F
:100FA000E99A11C0709327016093260183E096E0CF
:100FB0009093010180930001809169008C7F816092
:100FC00080936900E89A81E0089580E008950F9386
:100FD0001F93CF93DF93EC01062F142F62E0802F35
:100FE0000E941D0262E0812F0E941D02802F90E06E
:100FF000FC01EA57FF4FE491F0E0EE0FFF1FE458C9
:10100000FF4FA591B491B983A883FC01E656FF4F29
:1010100024912C83812F90E0FC01EA57FF4FE4914B
:10102000F0E0EE0FFF1FE458FF4F459154915B83B2
:101030004A83FC01E656FF4F94919D831F821886D8
:1010400019861A86EBE3FFE13197F1F7EC91E22381
:1010500031E009F430E0DA01EC91E92309F0326083
:101060003E83BE01802F0E94BC078B87BE01812F6B
:101070000E94BC079B85890F8B87DF91CF911F91C1
:101080000F9108958F929F92AF92BF92CF92DF926D
:10109000EF92FF920F931F93CF93DF93EDE3F1E075
:1010A0001382128288EE93E0A0E0B0E084839583FF
:1010B000A683B78388E091E09183808385EC90E0FC
:1010C0009587848784EC90E09787868780EC90E012
:1010D000918B808B81EC90E0938B828B82EC90E003
:1010E000958B848B86EC90E0978B868B118E128E7D
:1010F000138E148E8DE3882E8F929CE4992E9F92EE
:10110000DCECDF93CDECCF93A12CB12C6501E12C6D
:10111000F12C00E210E42AE332E04EE352E062E414
:1011200072E086E492E00E9409068F929F92DF931C
:10113000CF9322EF31E046EF51E06AEF71E08EEF9E
:1011400091E00E94090644E062E086EE91E00E9490
:10115000E7078DB79EB708960FB6F8949EBF0FBEEF
:101160008DBF45E063E08AED91E0DF91CF911F9163
:101170000F91FF90EF90DF90CF90BF90AF909F9036
:101180008F900C94E707CF93DF93CDB7DEB7A89786
:101190000FB6F894DEBF0FBECDBF789484B58260E1
:1011A00084BD84B5816084BD85B5826085BD85B50B
:1011B000816085BD80916E00816080936E00109289
:1011C0008100809181008260809381008091810004
:1011D0008160809381008091800081608093800095
:1011E0008091B10084608093B1008091B0008160F3
:1011F0008093B00080917A00846080937A0080911F
:101200007A00826080937A0080917A008160809376
:101210007A0080917A00806880937A001092C100F1
:10122000E0914D01F0914E0182E08083E09149010F
:10123000F0914A011082E0914B01F0914C0180E164
:10124000808310925501E0915101F091520186E0A6
:101250008083E0914F01F091500180818061808313
:10126000E0914F01F0915001808188608083E0918E
:101270004F01F0915001808180688083E0914F019F
:10128000F091500180818F7D808380918002811157
:1012900004C086E492E00E94310481E080938002E1
:1012A000FDECCF2EFCECDF2EFCE4EF2EFDE3FF2E59
:1012B00000E010E0980140E050E060E270E486E475
:1012C00092E00E94F70400E010E02FE733E440E0F2
:1012D00050E06FE773EC86E492E00E94770480911F
:1012E0003802811104C08EEF91E00E94310481E048
:1012F000809338025DECC52E5CECD52E5CE4E52EC7
:101300005DE3F52E00E010E0980140E050E060E27F
:1013100070E48EEF91E00E94F70400E010E02FE708
:1013200033E440E050E06FE773EC8EEF91E00E9411
:101330007704F89480E797E1A0E0B0E08093ED01B6
:101340009093EE01A093EF01B093F0017894F8949C
:101350008093E1019093E201A093E301B093E40153
:10136000789462E086E00E941D0262E088E00E94BC
:101370001D0262E087E00E941D0262E089E00E9497
:101380001D022224239460E4362E44244A9473E000
:10139000572E612C712CE6E1CE2EE1E0DE2E8E017F
:1013A0000F5F1F4F780186E00E94C5010197A1F4ED
:1013B000F8941092ED011092EE011092EF0110924C
:1013C000F001789410922F0100E010E02FE733E451
:1013D00040E050E0BA010AC020922F0100E010E086
:1013E0002FE733E440E050E06FE773EC86E492E0EF
:1013F0000E94770488E00E94C501019791F4F89457
:101400001092E1011092E2011092E3011092E401C6
:10141000789400E010E02FE733E440E050E0BA01B8
:1014200008C000E010E02FE733E440E050E06FE751
:1014300073EC8EEF91E00E94770487E00E94C50173
:10144000019731F41092300100E010E0980106C0DD
:101450002092300100E010E02FE733E440E050E05C
:101460006FE773EC86E492E00E94770489E00E94C3
:10147000C501019721F400E010E0980104C000E0EC
:1014800010E02FE733E440E050E06FE773EC8EEFBD
:1014900091E00E9477043FB7F89480912B019091DE
:1014A0002C01A0912D01B0912E0126B5A89B05C05D
:1014B0002F3F19F00196A11DB11D3FBFBA2FA92FD3
:1014C000982F8827820F911DA11DB11D42E0880F22
:1014D000991FAA1FBB1F4A95D1F740913501509122
:1014E000360160913701709138018C019D01041B18
:1014F000150B260B370BB901A801493A5146610576
:10150000710508F47DC08093350190933601A09356
:101510003701B093380130927C0080917A0080646A
:1015200080937A0080917A0086FDFCCFA0917800AC
:1015300080917900B0E0B82B24ED37E10E94300EA5
:10154000A30192010E94A20BCA01B901645671095C
:10155000810991090E940E0D4B015C0160933A02D2
:1015600070933B0280933C0290933D0210913101B5
:1015700000913201612F702F8091330190913401DD
:101580000E940E0D9B01AC01C501B4010E94F20B3B
:101590000E94D60C7F936F9360913E0270913F0240
:1015A00080914002909141020E94D60C7F936F93EC
:1015B0000F931F93C501B4010E94DD0C7F936F93BD
:1015C000DF92CF92FF92EF920E94420EF7010190BC
:1015D0000020E9F73197AF014E195F09B7018DE39C
:1015E00091E00E948C0042E050E062E271E08DE305
:1015F00091E00E948C000FB6F894DEBF0FBECDBF05
:101600008091F101823030F4F89486EE91E00E94EE
:10161000BB0501C0F8946091ED017091EE018091DD
:10162000EF019091F0017894609331017093320151
:1016300080933301909334010E940E0D6093420217
:1016400070934302809344029093450280918002FC
:10165000882321F086E492E00E94B9028091E5019E
:10166000823030F4F8948AED91E00E94BB0501C00D
:10167000F8946091E1017091E2018091E301909111
:10168000E40178940E940E0D6093FA017093FB01BF
:101690008093FC019093FD0180913802882321F012
:1016A0008EEF91E00E94B90280903E0290903F023E
:1016B000A0904002B090410220E030E040EA51E4C6
:1016C000C501B4010E94BE0D18168CF48091300142
:1016D000882369F061E08CE00E94EE0160913E0297
:1016E00070913F0280914002909141021DC020E024
:1016F00030E040EA51ECC501B4010E945F0C60E0AB
:1017000087FF15C080912F01882389F08CE00E940B
:10171000EE0180913E0290913F02A0914002B09173
:101720004102BC01CD0190580E94D60C05C08CE04E
:101730000E94EE0160E070E08AE00E9459020E947F
:10174000920131CE052E97FB1EF400940E94B90B36
:1017500057FD07D00E94C10B07FC03D04EF40C9438
:10176000B90B50954095309521953F4F4F4F5F4FA6
:10177000089590958095709561957F4F8F4F9F4FFD
:101780000895A1E21A2EAA1BBB1BFD010DC0AA1FC2
:10179000BB1FEE1FFF1FA217B307E407F50720F0DA
:1017A000A21BB30BE40BF50B661F771F881F991F55
:1017B0001A9469F760957095809590959B01AC019E
:1017C000BD01CF010895A29FB001B39FC001A39FA7
:1017D000700D811D1124911DB29F700D811D11246A
:1017E000911D08955058BB27AA270E940A0C0C94FB
:1017F000840D0E94760D38F00E947D0D20F039F4A2
:101800009F3F19F426F40C94730D0EF4E095E7FB5A
:101810000C946D0DE92F0E94950D58F3BA176207CD
:1018200073078407950720F079F4A6F50C94B70D9B
:101830000EF4E0950B2EBA2FA02D0B01B9019001EB
:101840000C01CA01A0011124FF27591B99F0593F2F
:1018500050F4503E68F11A16F040A22F232F342F77
:101860004427585FF3CF469537952795A795F040C5
:101870005395C9F77EF41F16BA0B620B730B840BDA
:10188000BAF09150A1F0FF0FBB1F661F771F881F92
:10189000C2F70EC0BA0F621F731F841F48F48795EA
:1018A00077956795B795F7959E3F08F0B0CF9395DC
:1018B000880F08F09927EE0F9795879508950E9455
:1018C000490D08F481E008950E94780C0C94840D71
:1018D0000E947D0D58F00E94760D40F029F45F3F84
:1018E00029F00C946D0D51110C94B80D0C94730DDE
:1018F0000E94950D68F39923B1F3552391F3951B3D
:10190000550BBB27AA2762177307840738F09F5F20
:101910005F4F220F331F441FAA1FA9F335D00E2E8D
:101920003AF0E0E832D091505040E695001CCAF7FA
:101930002BD0FE2F29D0660F771F881FBB1F2617BD
:1019400037074807AB07B0E809F0BB0B802DBF0194
:10195000FF2793585F4F3AF09E3F510578F00C9463
:101960006D0D0C94B80D5F3FE4F3983ED4F386956B
:1019700077956795B795F7959F5FC9F7880F911D84
:101980009695879597F90895E1E0660F771F881F70
:10199000BB1F621773078407BA0720F0621B730B23
:1019A000840BBA0BEE1F88F7E09508950E94DD0CBA
:1019B0006894B1110C94B80D08950E949D0D88F0A3
:1019C0009F5798F0B92F9927B751B0F0E1F0660F03
:1019D000771F881F991F1AF0BA95C9F714C0B13044
:1019E00091F00E94B70DB1E008950C94B70D672FE8
:1019F000782F8827B85F39F0B93FCCF38695779573
:101A00006795B395D9F73EF490958095709561955B
:101A10007F4F8F4F9F4F0895E89409C097FB3EF486
:101A200090958095709561957F4F8F4F9F4F99232B
:101A3000A9F0F92F96E9BB279395F69587957795A9
:101A40006795B795F111F8CFFAF4BB0F11F460FF69
:101A50001BC06F5F7F4F8F4F9F4F16C0882311F0C1
:101A600096E911C0772321F09EE8872F762F05C0D5
:101A7000662371F096E8862F70E060E02AF09A9570
:101A8000660F771F881FDAF7880F9695879597F965
:101A90000895990F0008550FAA0BE0E8FEEF1616FF
:101AA0001706E807F907C0F012161306E407F50752
:101AB00098F0621B730B840B950B39F40A2661F0C6
:101AC000232B242B252B21F408950A2609F4A14069
:101AD000A6958FEF811D811D089597F99F6780E876
:101AE00070E060E008959FEF80EC089500240A9470
:101AF0001616170618060906089500240A941216E9
:101B00001306140605060895092E0394000C11F41B
:101B1000882352F0BB0F40F4BF2B11F460FF04C0C8
:101B20006F5F7F4F8F4F9F4F089557FD9058440F21
:101B3000551F59F05F3F71F04795880F97FB991F2C
:101B400061F09F3F79F087950895121613061406E9
:101B5000551FF2CF4695F1DF08C016161706180676
:101B6000991FF1CF86957105610508940895E89451
:101B7000BB2766277727CB0197F908950E94490D67
:101B800008F48FEF08950E94D60D0C94840D0E94E6
:101B9000760D38F00E947D0D20F0952311F00C9405
:101BA0006D0D0C94730D11240C94B80D0E94950DBD
:101BB00070F3959FC1F3950F50E0551F629FF001A0
:101BC000729FBB27F00DB11D639FAA27F00DB11DB9
:101BD000AA1F649F6627B00DA11D661F829F222742
:101BE000B00DA11D621F739FB00DA11D621F839FC9
:101BF000A00D611D221F749F3327A00D611D231F9F
:101C0000849F600D211D822F762F6A2F11249F57EC
:101C100050409AF0F1F088234AF0EE0FFF1FBB1FEF
:101C2000661F771F881F91505040A9F79E3F5105AE
:101C300080F00C946D0D0C94B80D5F3FE4F3983E6A
:101C4000D4F3869577956795B795F795E7959F5F58
:101C5000C1F7FE2B880F911D9695879597F90895EA
:101C60000E94E30BB7FF0895821B930B0895EE0FBC
:101C7000FF1F0590F491E02D099481E090E0F89425
:101C80000C942C11AEE0B0E0E8E4FEE00C940311FB
:101C90000D891E8986E08C831A8309838FEF9FE765
:101CA0009E838D83AE01475E5F4F6F89788DCE0135
:101CB00001960E94640EEF81F885E00FF11F1082FB
:101CC0002E96E4E00C941F11ABE0B0E0EAE6FEE0F3
:101CD0000C94F5106C017B018A01FC0117821682BD
:101CE000838181FFCCC1CE0101963C01F601938135
:101CF000F70193FD859193FF81917F01882309F47A
:101D0000BAC1853239F493FD859193FF81917F01AA
:101D1000853229F4B60190E00E945B10E7CF912C48
:101D2000212C312CFFE1F315D8F08B3279F038F407
:101D3000803279F08332A1F4232D20611DC08D32D1
:101D400061F0803369F4232D216016C0832D8260F9
:101D5000382EE32DE4603E2E2AC0F32DF8601DC01E
:101D600037FC2DC020ED280F2A3040F08E32B9F418
:101D700036FC81C1232D2064322E19C036FE06C0E8
:101D80008AE0989E200D1124922E11C0EAE02E9E2A
:101D9000200D1124222EF32DF0623F2E08C08C3628
:101DA00021F4832D8068382E02C0883641F4F70173
:101DB00093FD859193FF81917F018111B3CF982F7E
:101DC0009F7D9554933028F40C5F1F4F9FE39983B8
:101DD0000DC0833631F0833771F0833509F059C077
:101DE00021C0F801808189830E5F1F4F882483946E
:101DF000912C530113C02801F2E04F0E511CF80141
:101E0000A080B18036FE03C0692D70E002C06FEF84
:101E10007FEFC5010E9450104C018201F32DFF7726
:101E20003F2E16C0280122E0420E511CF801A0806E
:101E3000B18036FE03C0692D70E002C06FEF7FEF06
:101E4000C5010E9445104C01F32DF0683F2E820120
:101E500033FC1BC0822D90E088169906B0F4B601C1
:101E600080E290E00E945B102A94F4CFF50137FCE9
:101E7000859137FE81915F01B60190E00E945B1071
:101E800021102A9421E0821A91088114910471F79B
:101E9000E8C0843611F0893641F5F80137FE07C0F5
:101EA00060817181828193810C5F1F4F08C06081C6
:101EB0007181072E000C880B990B0E5F1F4FF32DBD
:101EC000FF763F2E97FF09C090958095709561959C
:101ED0007F4F8F4F9F4FF0683F2E2AE030E0A301E5
:101EE0000E949710882E861845C0853731F4232D1F
:101EF0002F7EB22E2AE030E025C0932D997FB92E97
:101F00008F36C1F018F4883579F0B5C0803719F0F4
:101F1000883721F0B0C0E92FE061BE2EB4FE0DC0BD
:101F2000FB2DF460BF2E09C034FE0AC0292F2660A5
:101F3000B22E06C028E030E005C020E130E002C04B
:101F400020E132E0F801B7FE07C060817181828133
:101F500093810C5F1F4F06C06081718180E090E02B
:101F60000E5F1F4FA3010E949710882E8618FB2D2D
:101F7000FF773F2E36FE0DC0232D2E7FA22E891413
:101F800058F434FE0BC032FC09C0832D8E7EA82E7F
:101F900005C0B82CA32C03C0B82C01C0B92CA4FEDA
:101FA0000FC0FE01E80DF11D8081803321F49A2DD0
:101FB000997EA92E09C0A2FE06C0B394B39404C0B2
:101FC0008A2D867809F0B394A3FC11C0A0FE06C048
:101FD000B21488F4280C922C9B180EC0B21460F432
:101FE000B60180E290E00E945B10B394F7CFB21488
:101FF00018F42B1802C0982C212CA4FE10C0B60196
:1020000080E390E00E945B10A2FE17C0A1FC03C019
:1020100088E790E002C088E590E0B6010CC08A2D08
:10202000867859F0A1FE02C08BE201C080E2A7FCD5
:102030008DE2B60190E00E945B10891438F4B6017D
:1020400080E390E00E945B109A94F7CF8A94F301AA
:10205000E80DF11D8081B60190E00E945B108110B7
:10206000F5CF222009F442CEB60180E290E00E9432
:102070005B102A94F6CFF6018681978102C08FEF1C
:102080009FEF2B96E2E10C941111FC010590615039
:1020900070400110D8F7809590958E0F9F1F08957E
:1020A000FC016150704001900110D8F78095909527
:1020B0008E0F9F1F08950F931F93CF93DF93FB0104
:1020C000238121FD03C08FEF9FEF2CC022FF16C09C
:1020D00046815781248135814217530744F4A081FA
:1020E000B1819D012F5F3F4F318320838C932681E7
:1020F00037812F5F3F4F3783268314C08B01EC015C
:10210000FB010084F185E02D0995892BE1F6D801CA
:1021100016968D919C911797019617969C938E9386
:102120001697CE01DF91CF911F910F910895FA017B
:10213000AA27283051F1203181F1E8946F936E7F06
:102140006E5F7F4F8F4F9F4FAF4FB1E03ED0B4E0F7
:102150003CD0670F781F891F9A1FA11D680F791F38
:102160008A1F911DA11D6A0F711D811D911DA11D49
:1021700020D009F468943F912AE0269F1124301959
:10218000305D3193DEF6CF010895462F4770405DF4
:102190004193B3E00FD0C9F7F6CF462F4F70405DA3
:1021A0004A3318F0495D31FD4052419302D0A9F7FE
:1021B000EACFB4E0A6959795879577956795BA95F8
:1021C000C9F700976105710508959B01AC010A2EBE
:1021D00006945795479537952795BA95C9F7620F95
:1021E000731F841F951FA01D08952F923F924F9239
:1021F0005F926F927F928F929F92AF92BF92CF9297
:10220000DF92EF92FF920F931F93CF93DF93CDB79F
:10221000DEB7CA1BDB0B0FB6F894DEBF0FBECDBF17
:1022200009942A88398848885F846E847D848C84E8
:102230009B84AA84B984C884DF80EE80FD800C81F1
:102240001B81AA81B981CE0FD11D0FB6F894DEBFD4
:0C2250000FBECDBFED010895F894FFCF44
:10225C00B802B8020000000023018C00BA00700123
:10226C00EB00C900DD0025642C25642C25642C258D
:06227C0064000D0A0000E1
:00000001FF
